:040000000A160028B4
:10000800FF00030E8301D0000A08CF008A017008A0
:10001800A3007108A2007208A1007308A0002608B6
:10002800A4002708A5000B1DAC280B115308003AA3
:10003800031D96285408F000F101F00DF10D701021
:100048000430F00717300318013EF107F00A0319CE
:10005800F10A7008A6007108A700CC218A110A12BB
:10006800D3005408F000F101F00DF10D70100430C8
:10007800F00717300318013EF1077008A600710851
:10008800A700CC218A110A12F3007308F000F101CD
:10009800F00DF10D7010A230F00717300318013E73
:1000A800F1077008A6007108A700CC218A110A126E
:1000B800831692002830831295005408F000F1014D
:1000C800F00DF10D70100430F00717300318013EE1
:1000D800F1077008A6007108A700CC218A110A123E
:1000E800F3007308F000F101F00DF10D7010A2306B
:1000F800F00717300318013EF107F00A0319F10A57
:100108007008A6007108A700CC218A110A1297006E
:1001180054084E3A031D9228D4019628540AF00038
:100128007008D40015080319A1280F305E05F100E6
:100138007108003A031DA12895035E08803A031D43
:10014800AB28DE015303F0007008D300AC28DE0AA8
:100158002408A6002508A7002308F0002208F100BB
:100168002108F2002008F3004F088A00500E83008F
:06017800FF0E7F0E0900DE
:10017E008312031306160000000000000000061292
:0A018E00000000000000000008005F
:10019800203083120313860003172A08003A031D30
:1001A800D7288614D82806148316031388018312C7
:0C01B8000317290803138800BF2008006B
:1001C4008312031726080313D50003172708031304
:1001D400D600031727080313D700D70CD713D70C5F
:1001E400D713D70CD713403003172602031CFF285C
:1001F4000130A8004030A6020029A801B83003133A
:1002040057040317A900AA01CC20B83057040317D8
:10021400A9000130AA00CC20403003172604A9000D
:080224002808AA00CC20080004
:10022C00831203138801FF30831688002030831259
:10023C00860040305502031C2529061426298614F5
:10024C0006158615061600000000000000000808C0
:10025C000317A500061200000000000000000313A5
:10026C0055080317A600031356080317A700E2202E
:08027C0003172508F00008003B
:10028400203083120313860040305502031C4C298E
:1002940006144D2986140615831688018312031744
:0C02A400250803138800BF20D50A0800BD
:1002B000710DF80DF90D7408F8027508031C750F1F
:1002C000F902F00DF10D0F30FC00710DF80DF90D74
:1002D0007408701C7129F8027508031C750FF90267
:1002E0007629F80775080318750FF907F00DF10D59
:1002F000FC0B6529701882297408F8077508031823
:08030000750FF9070000080069
:1003080083120313F801F9011030FC00710DF80D88
:10031800F90D7408F8027508031C750FF902031823
:100328009C297408F80775080318750FF907031056
:0A033800F00DF10DFC0B8A290800FE
:1003420083120313FB01FA01F9018030F800F10C6A
:10035200F00C031CB5297408F90775080318750F0A
:10036200FA070318FB0A0310F01FBD297408FA07E5
:1003720075080318750FFB07FB0CFA0CF90CF80C47
:10038200031CA8297B08F3007A08F2007908F1001F
:060392007808F0000800ED
:0E0398008312031327088A002608820008003B
:1003A600831203172108A6002208A700E2201621BF
:1003B60016217008A40023080319F2290730220524
:1003C600F0007008F1000130F00071080319EF2900
:1003D600F00D7010FF3EE9297008A404032A0730C7
:1003E6002205F0007008F1000130F00071080319D1
:1003F600002AF00D7010FF3EFA29F0097008A405D6
:080406002408A50042210800B2
:10040E00831203137408003A031D162A7508003A66
:10041E00031D162AFF30F0007F30F1000800831212
:10042E000313FD01F901F80171087004031900347A
:10043E0071087506FA00FA1BFD09FB01F51F2C2A3F
:10044E00F409F509F40A0319F50AF11F332AF00924
:10045E00F109F00A0319F10A71087504FA00FA1B82
:10046E00482A58217B185B2AFD1F0034F009F10938
:10047E00F00A0319F10AF809F909F80A0319F90A39
:10048E000034F51F572AF11B532A7108F900700822
:10049E00F800F101F0013B2AF101F001F00A0034FD
:1004AE00F109F009FB0A382AF80A0319F90A740847
:1004BE007802031D3B2A75087902031D3B2AF901B8
:1004CE00F801F00A0319F10AF11F3B2A0000FF346C
:0204DE00080014
:1004E000831203137008F100F0010830FC0071085A
:1004F000F40C03187F2AFC0B782AF1010034031056
:10050000842AF40C0318F107F10CF00CFC0B812A7F
:020510000800E1
:100512008312031715088D0083168C130C14831293
:060522000C08F0000800C7
:10052800831203179601083016020318B32AA6018E
:100538001608A700A70D2710A70D2710A70D27102D
:10054800E22003179701803017020318B12A150813
:10055800A50042210317970AA72A960A972A080096
:10056800831203179803180815079B001908F4004D
:100578001A08F5001608F0001708F1008421780819
:10058800F0007908F100C830F00718300318013E70
:10059800F1077008A6007108A700CC218A110A1279
:1005A800F00003171B088400700880001908F40085
:1005B8001A08F5001608F0001708F10084217008E1
:1005C8000317960071089700700871040319F02A40
:0A05D80018080319F02AB42A0800DD
:1005E2008312031716089B0018081607F100F20180
:1005F2000318F20A8030F000803072067002031D88
:10060200042B71081B020318542B1B08160603192E
:10061200212B01301802F000F101031CF1037008D4
:100622001607F20000300318013E7107F300003094
:100632007306031D1E2B72081B060319212B3F2B69
:1006420015089A0017081507F100F2010318F20ABB
:100652008030F000803072067002031D322B710868
:100662001A0203183E2B1A08A1001B08A20019083F
:10067200A300D32103179A0A232B512B1508A1009B
:100682001B08A2001908A300D32103171703F000C7
:1006920070081507A1001B08A2001908A300D321A6
:0806A20003179B0AF52A08006A
:1006AA00831203179801053018020318952B1808AE
:1006BA0015079B001708F000F1012330F400003001
:1006CA00F500A1210030F00718300318013EF107A8
:1006DA0070080317990071089A001808F000F101D0
:1006EA000730F4000030F500A12103171908F007BC
:1006FA001A080318013EF1071608F0070318F10A51
:10070A0070080313A6007108A700CC218A110A12E7
:10071A00F00003171B08840070088000980A582B01
:02072A000800C5
:10072C0083120313F201F30180307306F000803062
:10073C007002031DA42B0317170872020318B72BA2
:10074C00031772081507F1007208160784000008D9
:10075C00F0007108840070088000F20A0319F30A93
:04076C009A2B0800BC
:10077000831203171708F0000530F40070220430CC
:10078000700703179E0071080318013E9F0099012E
:10079000053019020318A22C1E081C3EF0000E3072
:1007A0000318013E1F07F10070080313A60071082B
:1007B000A700CC218A110A1203179B0018080319FD
:1007C000E22B9B091508A6001608A700E2200317D4
:1007D0009A0107301A020318322C162116217008CC
:1007E0009C001A08F2000130F0000030F10072089D
:1007F0000319FF2BF00DF10D7010FF3EF82B700860
:100800001B05F30000307105F4001A08F0007308AE
:10081000F1007408F20070080319152CF20CF10CA9
:10082000F213721BF217FF3E0C2C07301605F00076
:100830001908F00771089D0070080319232C9D0DFD
:100840001D10FF3E1D2C1908003A031D2A2C1D08FF
:100850009C002C2C1D089C041C08A5004221031799
:100860009A0AE92B07301605F00003199C2C15088D
:10087000A60008301607A700E22003179A010730E8
:100880001A0203189C2C1621162170089C001A08C5
:10089000F3000130F1000030F20073080319552C09
:1008A000F10DF20D7110FF3E4E2C71081B05F40086
:1008B00000307205F5001A08F1007408F20075089E
:1008C000F300710803196B2CF30CF20CF313731B78
:1008D000F317FF3E622C1908F1007208F400730848
:1008E000F50071080319792CF40DF50D7410FF3E15
:1008F000722C07301605F1007108083CF100F20176
:10090000031CF2037108F3007408F1007508F2008B
:1009100073080319922CF20CF10CF213721BF217EC
:10092000FF3E892C7108F00470089C007008A50037
:10093000422103179A0A3F2C01309E02031C9F0399
:06094000990AC82B080013
:10094600831203171708F0000530F40070227008B0
:1009560003179B0071089C001508A6001608A7003F
:10096600E22003179901053019020318E92C162114
:10097600162170089A001B081C3EF0000E30031862
:10098600013E1C07F10070080313A6007108A700BA
:10099600CC218A110A12F100073003171605F00060
:1009A60071089A0070080319DC2C9A0D1A10FF3E84
:1009B600D62C18080319E02C9A091A08A50042211A
:0E09C60003179B0A03199C0A990AB62C080015
:1009D400831603178C1CF02C0000EA2C83121508D4
:1009E4008D0016088C0083168C130C150B08F00070
:1009F4008B1355308D00AA308D008C14F01B042D00
:0A0A04008B13052D8B170C11080051
:100A0E0083120317150AF1007108F300F30D73102A
:100A1E00F30D731073089500160AF2007208F000B9
:100A2E00F00D7010F00D70100230F002700896008C
:100A3E001808F0077008960070089B009C01730858
:100A4E003C3CF000F101031CF10370089D0071089D
:100A5E009E001B08A6007008A700E220031799014C
:100A6E009A0180301A06F00080307002031D412D6D
:100A7E00043019020318C52D19081B07F1001C08B4
:100A8E000318013E1A07F20000307206031D512DA5
:100A9E0040307106031D592D19081B07A6001D08AD
:100AAE00A700E2201621162170089F0000301A06BA
:100ABE00031D632D0130190603196E2D00301A0621
:100ACE00031D6B2D0230190603196E2D712D093081
:100ADE00A000732D0F30A00017080319A12D0830A8
:100AEE00F4000030F5001D08F0001E08F10007228A
:100AFE007808F0007908F1007008F3000F30F2006A
:100B0E00730803198E2DF20D7210FF3E882DF20917
:100B1E00720803179F057008F1002008F000710895
:100B2E0003199D2DF00D7010FF3E972D03177008C1
:100B3E009F04BD2D0830F4000030F5001D08F000B4
:100B4E001E08F10007227808F0007908F1007008FD
:100B5E00F1000F30F00071080319B92DF00D70106F
:100B6E00FF3EB32DF009700803179F051F08A5005F
:0E0B7E0042210317990A03199A0A382D08001C
:100B8C00D330831203179500831603134F08831277
:100B9C00031796008316031350088312031797004C
:100BAC00552383160313D1010530510203188C2EE3
:100BBC00D2010530520203188A2E5108D33E84000C
:100BCC005208F2000130F0000030F10072080319F5
:100BDC00F42DF00DF10D7010FF3EED2D0008F00519
:100BEC000030F105700871040319882E023052028E
:100BFC00F000F101031CF10370084D07F200003006
:100C0C000318013E7107F30080307306F00080304A
:100C1C007002031D132E003072020318172EF00100
:100C2C00080002305202F000F101031CF1037008BD
:100C3C004D07F20000300318013E7107F3008030BD
:100C4C00F000803073067002031D2E2E72080D3CCE
:100C5C000318322EF001080002305102F000F101AD
:100C6C00031CF10370084E07F20000300318013E1C
:100C7C007107F3008030F000803073067002031DA2
:100C8C00492E7208133C03184D2EF0010800023057
:100C9C005102F000F101031CF10370084E07F30040
:100CAC0000300318013E7107F4007308F00074085B
:100CBC00F100F00DF10D70107008A03E84000230B0
:100CCC005202F000F101031CF1034D08F007031868
:100CDC00F10A7008F2000130F0000030F1007208E7
:100CEC0003197D2EF00DF10D7010FF3E762E0008CD
:100CFC00F005840A0008F105700871040319882EA8
:100D0C00F0010800D20ADF2DD10ADA2DD10105300D
:100D1C00510203189F2E5108603EF1005108D33E3A
:100D2C0084000008F0007108840070088000D10A6B
:100D3C008D2E4D088312DA0083164E088312DC00C8
:0E0D4C00831650088312DB000130F00008000F
:100D5A0083160313CE01CF0180304F06F000803096
:100D6A007002031DBA2E0E304E020318FB2E4D08D8
:100D7A00F000F00D70107008A03E84004E08F200DA
:100D8A000130F0000030F10072080319D12EF00D85
:100D9A00F10D7010FF3ECA2E0008F005840A000803
:100DAA00F105700871040319F52E4E088312031712
:100DBA009500831603134D088312031796009701B3
:100DCA00980107250230FB004530FC00A930FD00E0
:100DDA00FD0BED2EFC0BED2EFB0BED2E00000000A3
:0E0DEA0083160313CE0A0319CF0AB12E080098
:100DF80083160313D001053050020318412FD10187
:100E08000530510203183F2F5008603E84005108F6
:100E1800F2000130F0000030F10072080319192FB8
:100E2800F00DF10D7010FF3E122F0008F005003094
:100E3800F1057008710403193B2F02305102F000CC
:100E480070084E07831203179500023083160313A8
:100E58005002F00070084F0783120317960083169C
:100E680003134D088312031797009801072583166B
:0C0E78000313D10A042FD00AFF2E08003B
:100E8400F93083160313CF001730D00083120317F1
:100E9400950194220130950003309600523097005A
:100EA4003A30980001309900F12238308316031348
:100EB400CE00CD0106304D020318882F5A3083121C
:100EC40003179500831603134E0883120317960025
:100ED400831603134D084F07F00050080318013E12
:100EE400F10070088312A6007108A700CC218A11B2
:100EF4000A12F00020307002031797009801B823FB
:0E0F0400063083160313CE02CD0A5C2F0800C0
:100F1200013083160313D100053051020318EA2F62
:100F22004D08CF004E084F020318E82FD0010E30B3
:100F320050020318E62F4F08F000F00D70107008F1
:100F4200A03E84005008F2000130F0000030F100B1
:100F520072080319B12FF00DF10D7010FF3EAA2F88
:100F62000008F005840A0008F105700871040319ED
:100F7200CE2F5008831203179500831603134F08D0
:100F8200831203179600013097008316031351084A
:100F92008312031798000725E22F831603135008C4
:100FA200831203179500831603134F088312031746
:100FB20096009701831603135108831203179800B2
:100FC200072583160313D00A982FCF0A932FD10A2D
:040FD2008D2F080057
:0A0FD6008B1283120313920108002E
:10100000A03083160313EE001830EF008C308312EB
:101010000317900018309100B430920018309300FC
:1010200083160313EB01E7010830670203184F2B07
:101030008230FC00DD30FD00FD0B1C28FC0B1C2861
:1010400000000000E80110306802031841280F304A
:101050006B05F0007008CD3E8312031794008316D1
:1010600003136B088312031795008A1189228A15CE
:10107000140884007008800083160313EB0AE80A42
:1010800023288230FC00DD30FD00FD0B4528FC0BE1
:101090004528000000005B08EC00ED015C08F10051
:1010A000F00170086C04F2006D087104F30072081E
:1010B000EC007308ED00831259087302031D6228C7
:1010C0005808720203184C2B80308316EB008230D4
:1010D000FC00DD30FD00FD0B6B28FC0B6B280000D5
:1010E0000000E9010A30690203188D286908DD3E15
:1010F000831203179400831603136B0883120317DC
:1011000095008A1189228A151408840070088000CD
:1011100083160313EB0AE90A72288230FC00DD30E3
:10112000FD00FD0B9128FC0B9128000000008312AC
:10113000031795018A1194228A1583160313EA0175
:10114000E80110306802031815296A088312031792
:10115000950096018316031368086E07F0006F0868
:101160000318013EF10070088312A6007108A70061
:101170008A11CC218A150A12F00020307002031760
:10118000970098018A11A3248A15831603136A080D
:10119000831203179500083096008316031368081E
:1011A000831203171007F00011080318013EF10025
:1011B00070080313A6007108A7008A11CC218A15B4
:1011C0000A12F000203070020317970098018A116C
:1011D000A3248A15831603136A0883120317950044
:1011E0001030960083160313680883120317120742
:1011F000F00013080318013EF10070080313A60065
:101200007108A7008A11CC218A150A12F00020303B
:1012100070020317970098018A11A3248A150630DB
:1012200083160313EA07E80AA1285F308312031725
:101230009500083096001130831603136707831258
:101240000317970098018A11A3248A1583160313A4
:101250006708033C03182F290330F300312967087E
:10126000F3007308E8006530831203179500083017
:1012700096007308F000F101F00DF10D7010EA30E6
:10128000F00718300318013EF10770080313A60099
:101290007108A7008A11CC218A150A12F0002030AB
:1012A00070020317970098018A11A3248A156B30E6
:1012B000950008309600831603136808F000F101CA
:1012C000F00DF10D7010EA30F00718300318013EF0
:1012D000F107F00A0319F10A70088312A6007108D9
:1012E000A7008A11CC218A150A12F0002030700262
:1012F0000317970098018A11A3248A1583160313F4
:10130000EB010130E8000130EA00F03083120705FC
:10131000F00003198C29852983120708031D9529DC
:1013200083166808031D95297A2A8312871FB1291D
:1013300083166B08DD3E84000008003A031DA629D1
:101340006B08DD3E84003A308000B1296B08DD3E39
:10135000F100710884000003F00071088400700837
:1013600080008312071FD22983166B08DD3E83128B
:1013700003179400140884000008013EF000F101F6
:101380000318F10A3B30F4000030F5008A110722FF
:101390008A157808F0007908F10003171408840012
:1013A000700880000313871EEA2983166B08013E2C
:1013B000F000F1010318F10A0A30F4000030F500E2
:1013C0008A1107228A157808F0007908F100700860
:1013D0008316EB008312071EEE297D2A8316EA018D
:1013E000E8010A3068020318342A6808DD3E8400E8
:1013F00000083A3C0318002A6808DD3E840080019A
:1014000068086B06031D192A6A08831203179500E2
:1014100020309600831603136808DD3E8400000820
:10142000831203179700013098008A11A3248A15AC
:101430002E2A831603136A0883120317950020309F
:101440009600831603136808DD3E840000088312AB
:101450000317970098018A11A3248A150630831672
:101460000313EA07E80AF129E801F03083120705BF
:10147000F0000319792A143083166902031C682AC4
:101480008312871A592A83166B08DD3E84000008F0
:10149000003A031D592A0D30FB00AF30FC00B63076
:1014A000FD00FD0B512AFC0B512AFB0B512A0000B9
:1014B000672A0230FB004530FC00A930FD00FD0B1F
:1014C0005F2AFC0B5F2AFB0B5F2A00000000792AD1
:1014D0008316E90A0230FB004530FC00A930FD000C
:1014E000FD0B702AFC0B702AFB0B702A0000000019
:1014F000352A7C2A8316E9018C2983160730E800F7
:10150000E8036808EB00EB0D6B10EB0D6B10EB0DB7
:101510006B10EB0D6B10E901103069020318A72A5C
:101520006908CD3E831203179400831603136908DC
:101530006B078312031795008A1189228A151408F4
:1015400084007008800083160313E90A8C2A823015
:10155000FC00DD30FD00FD0BAB2AFC0BAB2A0000CC
:1015600000001030EB07E901103069020318CC2AA3
:1015700069086B0783120317950083160313690824
:10158000CD3E840000088312031796008A11EA24D6
:101590008A150313E90AB42A8230FC00DD30FD000D
:1015A000FD0BD02AFC0BD02A00000000680867025F
:1015B000031C802AFF30831258058316DB00831238
:1015C0005908F000F10170088316DC006708EB0091
:1015D000EB0D6B10EB0D6B10EB0D6B10EB0D6B103F
:1015E000E8011030680203181A2B0A306802031849
:1015F000062B6808CD3EF1006808DD3E84002030EF
:101600000007F00071088400700880006B088312E6
:1016100003179500831603136808CD3E8400000865
:101620008312031796008A11EA248A150313EB0A22
:10163000E80AF12A8230FC00DD30FD00FD0B1E2B94
:10164000FC0B1E2B000000008030EB00E9010A308B
:10165000690203183F2B6B0883120317950083164A
:1016600003136908DD3E8400000883120317960007
:101670008A11EA248A150313EB0AE90A272B823020
:10168000FC00DD30FD00FD0B432BFC0B432B000069
:1016900000000130F00008008316E70A1428F0016A
:0216A000080040
:1016A2008312031795018A1194228A158316031354
:1016B200D201CD01CE01CF0108304F0203183F2CD9
:1016C200D101831203179501831603135208831263
:1016D200031796001130831603134F078312031763
:1016E200970098018A11A3248A15063083160313E2
:1016F2005107F0007008D10070088312031795009B
:101702008316031352088312031796000E309700B4
:1017120098018A11A3248A150C3083160313D1076A
:10172200D0010E3050020318C42B4D088312031748
:1017320095008A1189228A15700883160313D50031
:10174200CD0A0319CE0A70087F3C0318A92BC22BBD
:10175200510883120317950083160313520883124C
:1017620003179600203083160313550283120317C2
:10177200970098018A11A3248A1506308316031351
:10178200D107D00A922B8230FC00DD30FD00FD0B28
:10179200C82BFC0BC82B000000004D088312031756
:1017A20095008A1189228A15700883160313D300C3
:1017B200D401CD0A0319CE0A4D08831203179500EE
:1017C2008A1189228A157008F200F10171088316C4
:1017D2000313D3047208D404CD0A0319CE0AD630F7
:1017E20083120317950033309600053097008A1153
:1017F20096238A15D6308312031795008316031396
:101802005308831203179600831603135408831296
:1018120003179700053098000A30990000309A00AB
:101822008A11B4228A15633083160313D100D001C2
:101832000530500203183B2C510883120317950000
:101842008316031352088312031796008316031399
:101852005008D63E840020300002831203179700FE
:1018620098018A11A3248A15063083160313D1071F
:10187200D00A192C0830D207CF0A5D2BF030831220
:101882000705F0000319462C3F2CF0300705F00045
:08189200031D4C2C462C08003C
:10189A008A11CC218A150A128000840AA60A031921
:0A18AA00A70AF003031D4D2C0800EF
:1018B40083120313D501D601D701FF3083168800A4
:1018C40086012030831286003F300317A900AA0145
:1018D4008A11CC208A153F300317A9000130AA00D1
:1018E4008A11CC208A15C0300317A900AA018A11D5
:1018F400CC208A15C0300317A9000130AA008A1130
:06190400CC208A1508004A
:10190A0083160313D301D401CF01D00180305006CE
:10191A00F00080307002031D942C4E084F02031809
:10192A00FA2C83120317A6010330F000831603135F
:10193A004F0883120317A70070080319A82CA70DD4
:10194A002710FF3EA22C8A11E2208A158316D101A4
:10195A00D20180305206F00080307002031DB72C8D
:10196A004D0851020318F62C00305206031DBF2CF5
:10197A0040305106031DD72C510883120317A600C5
:10198A000330F000831603134F0883120317A700CE
:10199A0070080319D42CA70D2710FF3ECE2C8A11EC
:1019AA00E2208A1583165308043EF0001430031807
:1019BA00013E5407F10070088312A6007108A700BF
:1019CA008A11CC218A150A120317A5008A1142210D
:1019DA008A158316D30A0319D40AD10A0319D20A1B
:0C19EA00AE2CCF0A0319D00A8B2C080089
:1019F6008B018B178B1683120313D401D301DE01DF
:0E1A0600C330831681000F3083129200080057
:101A14000B3083160313CE000030CF00CD01043009
:101A24004D020318612D4E088312031795001830D8
:101A34009600831603134D08F23EF0001830031885
:101A4400013EF10070088312A6007108A7008A11F4
:101A5400CC218A150A12F000203070020317970077
:101A640098018A11A3248A15831603134E0883123E
:101A74000317950020309600831603134D08F63E95
:101A8400F00018300318013EF10070088312A6001C
:101A94007108A7008A11CC218A150A12F00020309F
:101AA40070020317970098018A11A3248A1506303F
:101AB40083160313CE070318CF0ACD0A112DF03075
:101AC40083120705F0000319682D612DF030070516
:0A1AD400F000031D6E2D682D0800C0
:101ADE00CD30831203179500393096000A309700E7
:101AEE008A1196238A15D730831203179500283052
:101AFE0096000A3097008A1196238A15E1308312D8
:101B0E0003179500443096000A3097008A119623E9
:101B1E008A15D23083120317950003136508031735
:101B2E0096000313660803179700053098000A30D5
:101B3E00990000309A008A11B4228A15DC30950083
:101B4E0003135F08031796009701053098000A30BB
:101B5E00990000309A008A11B4228A15E630950059
:101B6E000313580803179600031359080317970019
:101B7E00053098000A30990000309A008A11B4227C
:101B8E008A15383083160313EB00EC010A306C0211
:101B9E0003181B2E68308312031795008316031348
:101BAE006B08831203179600831603136C08CD3E41
:101BBE0084002030000283120317970098018A11C7
:101BCE00B8238A1570309500831603136B088312A1
:101BDE0003179600831603136C08D73E840020303B
:101BEE00000283120317970098018A11B8238A15F1
:101BFE0078309500831603136B0883120317960033
:101C0E00831603136C08E13E840020300002831219
:101C1E000317970098018A11B8238A150630831688
:0A1C2E000313EB02EC0ACD2D0800B1
:102000008A15FA208A11DA3083160313C8001830B3
:10201000C900F030CA000730CB00CC0183126B0836
:10202000EF00DD01D801D9010130DF00E501E60153
:10203000E830D1000330D200F030831687008A15D3
:102040000A125A248A110A1683164C08003A031DF4
:10205000CA288312031795010A1294220A168030A7
:1020600083160313CD000630CE008A150A1285248C
:102070008A110A168312E701E80100306802031D85
:1020800043280F30670203189B286708F0000630CA
:10209000F4000A1270220A167008031795003030F7
:1020A00096000313670883164807F00049080318D1
:1020B000013E83126807F1007008A6007108A700AE
:1020C0000A12CC218A110A16F00020307002031780
:1020D000970098010A12A3240A1603136708F00058
:1020E0000630F4000A1270220A16700803179500D1
:1020F000383096000313670883164A07F0004B0830
:102100000318013E83126807F1007008A6007108E9
:10211000A7000A12CC218A110A16F00020307002A2
:102120000317970098010A12A3240A160313E70A5B
:102130000319E80A3D28F0300705F0000319A1282B
:102140009B28F0300705F0000319B9286F08013EFD
:10215000F000F1010318F10A0730F4000030F50037
:102160000A1207220A167808F0007908F1007008B0
:10217000EF00871FBF2801308316CC00C9288312C7
:10218000071FC8288A150A1251238A110A16C9285E
:10219000A12824288316CC01F03083120705F00013
:1021A0000319E6286B08013EF000F1010318F10A5B
:1021B0000730F4000030F5000A1207220A167808EA
:1021C000F0007908F1007008EB00CC280A124227D1
:1021D0000A168312E701E80100306802031DF228A5
:1021E00014306702031802296708F000F00D701020
:1021F0007008A03E84008001840A8001E70A031968
:10220000E80AEC288A150A126F258A110A168A151F
:102210000A12FB248A110A168312DB010230DC0049
:102220000630DA00EC016F08EE006B08EF0060305A
:102230000317950003136E080317960097010A12FF
:1022400055230A1683160313CD010D30CE00173027
:10225000CF000A12FC260A1660308312031795007D
:1022600003136F080317960097010A1255230A16E5
:10227000013083160313CD000D30CE001730CF0090
:102280000A12FC260A1683125A088316CD008312FE
:102290005C088316CE0083126E088316CF0083126B
:1022A0005B088316D0000A12C6250A168312031390
:1022B0007008031D88291430E7000030E800013061
:1022C000E702031CE80367088316CD000A12AD2657
:1022D0000A1683126808003C031D70296708003C39
:1022E000031C5F298A150A120A258A110A160A1286
:1022F000EB270A168A150A1200208A110A1670089E
:10230000031987298A150A1251238A110A160E28E1
:1023100083126C08031DFF2B5C08003C03189D29E9
:102320008316CD0183125A088316CE0083125C08EF
:102330008316CF000A12FC260A1683160130CD0040
:1023400083125A088316CE0083125C088316CF00CE
:102350000A12FC260A168312E701E80152086802F5
:10236000031DB429510867020318C02A871EFB29E0
:10237000DD1AFB29DD168316CD0183125A08831658
:10238000CE0083125C088316CF000A12FC260A16C0
:1023900083125A088316CD0083125C088316CE0080
:1023A00083126E088316CF0083125B08013EF00093
:1023B000F1010318F10A0430F4000030F5000A12AC
:1023C00007220A167808F0007908F10070088316D1
:1023D000D0000A12C6250A16013083160313CD0059
:1023E00083125A088316CE0083125C088316CF002E
:1023F0000A12FC260A168312871F302ADD1B302A98
:10240000DD178316CD0183125A088316CE0083127E
:102410005C088316CF000A12FC260A1683125A03A0
:102420008316CD0083125C088316CE0083126E08DB
:102430008316CF0083125B088316D0000A12C625CC
:102440000A16013083160313CD0083125A0883162F
:10245000CE0083125C088316CF000A12FC260A16EF
:102460008312071F652A5D1B652A5D178316CD0140
:1024700083125A088316CE0083125C088316CF009D
:102480000A12FC260A1683125A0A8316CD008312FA
:102490005C088316CE0083126E088316CF00831269
:1024A0005B088316D0000A12C6250A16013083166F
:1024B0000313CD0083125A088316CE0083125C08E2
:1024C0008316CF000A12FC260A168312071E852ADD
:1024D0005C086B07F000F1010318F10A0730F40003
:1024E0000030F5000A1207220A167808F000790871
:1024F000F1007008EB0000306802031D812A64308F
:102500006702031C842ABC2AAF2AF0300705F000BA
:1025100003199C2A0730F4000030F5006708F0002A
:102520006808F1000A1284210A167808F000790878
:10253000F1007008EB00AF2A5C086B07F000F101B6
:102540000318F10A0730F4000030F5000A120722E0
:102550000A167808F0007908F1007008EB00F030F6
:102560000705F0007008DD050730FC007D30FD0038
:10257000FD0BB82AFC0BB82AE70A0319E80AAE29B2
:102580008316CD0183125A088316CE0083125C088D
:102590008316CF000A12FC260A1683125A088316E5
:1025A000CD0083125C0A8316CE0083126E08831658
:1025B000CF0083125B088316D0000A12C6250A16C4
:1025C000831203137008031DF02B01308316CD0016
:1025D00083125A088316CE0083125C088316CF003C
:1025E0000A12FC260A1601308312EC00E701E8010A
:1025F00000306802031DFE2A053067020318452BD0
:102600006708603E84000008F100F2015A08F000FB
:102610007108F4007208F50070080319142BF40D0A
:10262000F50D7410FF3E0D2B02305C02F000F1013D
:10263000031CF10370086707F20068080318013EE5
:102640007107F3007208F000F00D70107008A03EE2
:10265000F3007408F0007508F100F10CF00CF113B0
:10266000F10CF00CF113730884000008F004840AE4
:102670000008F10473088400700880007108840A5F
:102680008000E70A0319E80AF82A1430E70000304E
:10269000E800ED010130E702031CE8036708F000E1
:1026A000F00D70107008A03E84000008F100840A4C
:1026B0000008F2003F307202031D602BFF307102F0
:1026C000031CDE2B67088316CD000A12AD260A16FE
:1026D000CD01831267088316CE000A1289270A16D5
:1026E00083126708E9006808EA006A08003C031DD5
:1026F0007B2B6908003C0318A42B6908F000F00D3F
:1027000070107008A03EF40001306902F200003041
:10271000031C013E6A02F3007208F000F00D701015
:102720007008A03E84000008F000840A0008F10050
:1027300074088400700880007108840A80000130E9
:10274000E902031CEA03752BE70A0319E80AE50A04
:102750000319E60AED0A5F08F0001430F4000A12CB
:1027600070220A166D08F400F5010A12A1210A165A
:102770007008D80771080318013ED9070A305F02B4
:102780000318DE2B0A30F4000030F5006508F00075
:102790006608F1000A1284210A167808F000790808
:1027A000F10000307106031DD72B00307006031DA9
:1027B000DE2BDF0A5A30D102031CD2036808003C2A
:1027C000031DE42B6708003C031C4A2B6D08003CEA
:1027D0000318EF2B8A150A126F258A110A16FE2B91
:1027E00083160130CD0083125A088316CE0083125F
:1027F0005C088316CF000A12FC260A1688290C29C9
:02280000002CAA
:1031F40028308400273083120313F000D230A60055
:0C3204001730A7000A124D240A1608001B
:100FE0005234433436343A34203448346934673424
:100FF0006834733463346F3472346534733400345A
:101C380000340034003400340034003400345F349D
:101C480000340034003407340034073400341434CA
:101C58007F3414347F34143424342A347F342A34BF
:101C68001234233413340834643462343634493437
:101C780055342234503400340534033400340034ED
:101C880000341C34223441340034003441342234CA
:101C98001C34003408342A341C342A3408340834F8
:101CA80008343E34083408340034503430340034B6
:101CB8000034083408340834083408340034303424
:101CC80030340034003420341034083404340234FE
:101CD8003E345134493445343E34003442347F3440
:101CE8004034003442346134513449344634213468
:101CF800413445344B3431341834143412347F347D
:101D08001034273445344534453439343C344A3466
:101D180049344934303401347134093405340334D6
:101D2800363449344934493436340634493449342C
:101D380029341E3400343634363400340034003448
:101D48005634363400340034003408341434223421
:101D580041341434143414341434143441342234D3
:101D6800143408340034023401345134093406344C
:101D780032344934793441343E347E3411341134A8
:101D880011347E347F3449344934493436343E344E
:101D980041344134413422347F3441344134223493
:101DA8001C347F3449344934493441347F3409344C
:101DB8000934013401343E3441344134513432342D
:101DC8007F340834083408347F34003441347F3495
:101DD800413400342034403441343F3401347F34BA
:101DE80008341434223441347F344034403440348D
:101DF80040347F340234043402347F347F34043472
:101E0800083410347F343E344134413441343E3454
:101E18007F3409340934093406343E3441345134AA
:101E280021345E347F340934193429344634463435
:101E38004934493449343134013401347F3401346C
:101E480001343F344034403440343F341F3420346C
:101E5800403420341F347F342034183420347F3405
:101E68006334143408341434633403340434783455
:101E78000434033461345134493445344334003430
:101E880000347F344134413402340434083410348B
:101E98002034413441347F34003400340434023473
:101EA8000134023404344034403440344034403443
:101EB80000340134023404340034203454345434AB
:101EC800543478347F3448344434443438343834DF
:101ED8004434443444342034383444344434483466
:101EE8007F343834543454345434183408347E34F9
:101EF80009340134023408341434543454343C342E
:101F08007F340834043404347834003444347D3461
:101F1800403400342034403444343D3400340034F8
:101F28007F34103428344434003441347F3440340E
:101F380000347C3404341834043478347C34083461
:101F4800043404347834383444344434443438342D
:101F58007C341434143414340834083414341434E9
:101F680018347C347C340834043404340834483459
:101F7800543454345434203404343F3444344034D6
:101F880020343C344034403420347C341C342034F5
:101F9800403420341C343C344034303440343C34F5
:101FA800443428341034283444340C3450345034F5
:101FB80050343C344434643454344C344434003461
:101FC8000834363441340034003400347F3400346B
:101FD80000340034413436340834003408340834CA
:101FE8002A341C34083408341C342A34083408349D
:102808000034003400340034003400340034003420
:102818000034003400340034003400340034003410
:102828000034003400340034003400340034003400
:1028380000340034003400340034003400340034F0
:1028480000340034003400340034003400340034E0
:1028580000340034003400340034003400340034D0
:1028680000340034003400340034003400340034C0
:1028780000347E347E347E34FE34FE34FE34FE343E
:10288800FE34FE347E347E347E347E347E347E34B0
:102898007E347E347E347E347E347E347E347E34A0
:1028A8007E347E347E340034003400340034003406
:1028B8000034003400340034003400340034003470
:1028C8000034003400340034003400340034003460
:1028D8000034003400340034003400340034003450
:1028E8000034003400340034003400340034003440
:1028F8000034003400340034003400340034003430
:10290800003400340034003400340034003400341F
:10291800003400340034003400340034003400340F
:102928000034003400340034003400340034F0340F
:10293800F034F034F034F034F034F034F034F0346F
:10294800F034F034F034F0340034F034F034F0344F
:10295800F034F034F03400340034F034F034F0342F
:10296800F034F034F034F034F034F034F034F0343F
:10297800F034F034F0340034FF34FF34FF34FF34E3
:10298800FF34FF34003400340034F034F034F034D1
:10299800F034F034F034F034F034F034F034F0340F
:1029A800F034F034E03400340034F034F034F034EF
:1029B800F034F034F03400340034F034F034F034CF
:1029C800F034F034F034F034F034F034F034F034DF
:1029D800F034F034F034003400340034003400347F
:1029E800003400340034003400340034003400343F
:1029F800003400340034003400340034003400342F
:102A0800003400340034003400340034003400341E
:102A1800003400340034003400340034003400340E
:102A28000034003400340034003400340034FF34FF
:102A3800FF34FF34FF34FF34FF34033403340334EA
:102A48000334FF34FF34FF340034FF34FF34FF34E1
:102A5800FF34FF34FF3400340034FF34FF34FF34D4
:102A6800FF34FF34FF3403340334033403340334B2
:102A78000334033403340034FF34FF34FF34FF34A9
:102A8800FF34FF34003400340034FF34FF34FF34A3
:102A9800FF34FF34FF340334033403340334033482
:102AA800FF34FF34FF3400340034FF34FF34FF3484
:102AB800FF34FF34FF3400340034FF34FF34FF3474
:102AC800FF34FF34FF340334033403340334033452
:102AD8000334033403340034003400340034003445
:102AE800003400340034003400340034003400343E
:102AF800003400340034003400340034003400342E
:102B0800003400340034003400340034003400341D
:102B1800003400340034003400340034003400340D
:102B28000034003400340034003400340034FF34FE
:102B3800FF34FF34FF34FF34FF34E034E034E03452
:102B4800E034FF34FF34FF340034FF34FF34FF3403
:102B5800FF34FF34FF3400340034FF34FF34FF34D3
:102B6800FF34FF34FF3400340034003400340034C0
:102B78000034003400340034FF34FF34FF34FF34B1
:102B8800FF34FF34003400340034FF34FF34FF34A2
:102B9800FF34FF34FF34E034E034E034E034E03430
:102BA800FF34FF34FF3400340034FF34FF34FF3483
:102BB800FF34FF34FF34003400347F34FF34FF34F3
:102BC800FF34FF34FF34E034E034E034E034E03400
:102BD800E034E034C03400340034003400340034CD
:102BE800003400340034003400340034003400343D
:102BF800003400340034003400340034003400342D
:102C0800003400340034003400340034003400341C
:102C1800003400340034003400340034003400340C
:102C28000034003400340034003400340034FF34FD
:102C3800FF34FF34FF34FF34FF34003400340034F1
:102C4800003400340034003400347F347F347F345F
:102C58007F347F347F34003400347F347F347F34D2
:102C68007F347F347F34703470347034703470340F
:102C780070347034703400347F347F347F347F3460
:102C88007F347F340034003400347F347F347F3421
:102C98007F347F347F34013407341F347F347F34EA
:102CA8007C3460340034003400347F347F347F3423
:102CB8007F347F347F34003400347034703470349F
:102CC80070347034703470347034703470347034DC
:102CD8007F347F347F3400340034003400340034CF
:102CE800003400340034003400340034003400343C
:102CF800003400340034003400340034003400342C
:102D080000340034003400340034003400342034FB
:102D18003034383438343834383438343834383453
:102D280038343834383438343834383438343F3434
:102D38003F343F343F343F343F34003400340034B0
:102D48000034003400340034003438343834383433
:102D5800383438343834383438343834383438340B
:102D680038343834383438343834383438343834FB
:102D780038343834383438343834383438343834EB
:102D880038343834383438343834383438343834DB
:102D980038343834383438343834383438343834CB
:102DA80038343834383438343834383438343834BB
:102DB80038343834383438343834383438343834AB
:102DC800383438343834383438343834383438349B
:102DD800383438343834383438343834383438348B
:102DE800383438343834383438343834383438347B
:102DF80038343034203400340034003400340034A3
:102E080009340434043402340534023407340434F5
:102E180005340234043402340234043402340234F3
:102E280005340234093404340734023405340234D6
:102E380004340634053402340734043409340234C3
:102E480005340234053404340234043402340634BC
:102E580002340234073404340234023407340234AE
:102E68000E3404340C3402340A3402340934043481
:102E780005340434093404340A3404341034023474
:102E88000E340234103402340E3402341034023456
:102E98000E3402341134023413340234113402343F
:102EA80010340234103404340E340634043402343A
:102EB800043404340434023405340234073404344A
:102EC8000734023409340234053404340234043437
:102ED800023408340934043409340434053404341D
:102EE800093404340734043409340434043404340D
:102EF8000934043402340434053404340934043401
:102F08000D340434043408340A3404340E340434DC
:102F18000734043411340434093404340A340434CE
:102F280005340434043404340934043407340434D0
:0C2F380005340434043404340234103432
:102F4400EE342C34E1343C34D4342C34C8342C34B2
:102F5400BD343C34B2342C34A8342C349E343C3448
:102F640096341C348D340C3485340C347E341C3447
:102F740076343C3470342C3469341C3463341C345B
:102F84005E342C3458343C3453341C344F340C34B5
:102F94004A343C3446342C3442342C343E343C34AD
:102FA4004C34653476343A3420342034203420349C
:062FB4002034203400343B
:0C2FBA0020342034203420342034003433
:102FC60052346F3477343A34203420342034203469
:062FD60020342034003419
:102FDC005334633472343A34203420342034203463
:062FEC0020342034003403
:0E2FF2004E3465347834743420343A3400346C
:103000000434003400340034003400340034043418
:1030100004340434063404340434043404340434EE
:103020000434063406340C340C3404340C340634C2
:1030300000340234043408340034003400340034E2
:1030400000340034003400340034003400340034E0
:1030500000340034003400340234063406340034C2
:1030600000341E340E340E3406340C340E340C345A
:1030700000340234003400340034043406340034A4
:1030800000340034003400340034003400340034A0
:1030900000340034003400340034043406340C347A
:1030A000063408340434023404340434043406345A
:1030B0000C34063406340434043404340034043448
:1030C0000434043404340034003400340034003454
:1030D0000034003400340034003400340034003450
:1030E0000034083400340634003404340C341E3404
:1030F0000E340E34063406340E34063400340034F4
:10310000083400340C34003400340034003400340B
:083110000034003400340034E7
:1031180059346F3475342034613472346534203452
:1031280070346C346134633465346434203420344E
:0831380020342034203400345F
:1031400043346F346E34673472346134743475349C
:103150006C346134743469346F346E3473342134B4
:08316000203420342034003437
:1031680045346E3474346534723420346E346134CA
:103178006D3465343A3420342034203420342034FB
:0831880020342034203400340F
:1031900030343134323433343434353436343734F3
:1031A00036343834393461346234633464346534E9
:0431B000663400344D
:1031B4005234433437343A3420344E34653477341B
:1031C4002034473461346D34653420342034003481
:1031D400733474346E3464347234643474346834E0
:1031E400473441344D3445344F34563445345234E5
:02400E004A2F37
:00000001FF
