:104200004E004F0042004F004400590020002000A3
:1042100020002000200020002000200000000000DE
:104220004E004F0042004F00440059002000200083
:1042300020002000200020002000200000000000BE
:104240004E004F0042004F00440059002000200063
:10425000200020002000200020002000000000009E
:104260004E004F0042004F00440059002000200043
:10427000200020002000200020002000000000007E
:104280004E004F0042004F00440059002000200023
:10429000200020002000200020002000000000005E
:1042A0004E004F0042004F00440059002000200003
:1042B000200020002000200020002000000000003E
:1042C0004E004F0042004F004400590020002000E3
:1042D000200020002000200020002000000000001E
:1042E0004E004F0042004F004400590020002000C3
:1042F00020002000200020002000200000000000FE
:1043000000000000000000000000000000000000AD
:10431000000000000000000000000000000000009D
:10432000200020002000200020002000200020008D
:10433000200020002000200020002000200020007D
:10434000200020002000200020002000200020006D
:10435000200020002000200020002000200020005D
:10436000200020002000200020002000200020004D
:10437000200020002000200020002000200020003D
:10438000200020002000200020002000200020002D
:10439000200020002000200020002000200020001D
:1043A000200020002000200020002000200020000D
:1043B00020002000200020002000200020002000FD
:1043C00020002000200020002000200020002000ED
:1043D00020002000200020002000200020002000DD
:1043E00020002000200020002000200020002000CD
:1043F00020002000200020002000200020002000BD
:00000001FF
